:100000000C942A000C9447000C9447000C94EC01CB
:100010000C9447000C9447000C9447000C94470044
:100020000C9447000C94A8020C9447000C944700D1
:100030000C9447000C9447000C9447000C94470024
:100040000C9447000C9447000C9447000C94470014
:100050000C94470011241FBECFE5D4E0DEBFCDBF16
:1000600010E0A0E6B0E0EAEDF9E002C005900D92E4
:10007000AE3AB107D9F710E0AEEAB0E001C01D9288
:10008000A83BB107E1F70E9460030C94EB040C94C9
:1000900000009B01AC011092B3001092B4001092CA
:1000A000B5001092B60013C08091B3009091B400D7
:1000B000A091B500B091B6000196A11DB11D80932D
:1000C000B3009093B400A093B500B093B6008091B4
:1000D000B3009091B400A091B500B091B600821722
:1000E0009307A407B50700F3089511BA882311F404
:1000F000C59801C0C59AC69A0000C79A00000000C2
:1001000000000000000080B3C79800009FEF91BB83
:100110000895882311F4C59801C0C59AC69862BB9A
:100120000000C79A00000000000000000000C7980F
:100130000000089580E00E94750087FDFBCF0895C0
:100140000E949A0080E068E30E9489000E949A0061
:1001500080E066E00E9489000E949A0080E06FE0E3
:100160000E9489000E949A0080E061E00E9489005C
:10017000089518BA82EE87BB8FEF81BB1BBA10922D
:10018000B3001092B4001092B5001092B60013C0E4
:100190008091B3009091B400A091B500B091B600E9
:1001A0000196A11DB11D8093B3009093B400A0935C
:1001B000B500B093B6008091B3009091B400A091C7
:1001C000B500B091B600805C944DA140B04000F302
:1001D0000E94A00008950E949A0080E061E00E94C1
:1001E000890008951F93162F813039F4613188F406
:1001F0000E949A001150106808C0823051F4613199
:1002000040F40E949A001150106C80E0612F0E940F
:1002100089001F9108951F93182F0E949A0081E072
:10022000612F0E9489000E949A0085E18A95F1F76A
:1002300080E00E947500803121F482E061E00E943C
:10024000F20080E00E947500803521F481E061E0D9
:100250000E94F2001F9108951F93CF93DF93EC014A
:1002600015E11EC00E949A0081E068810E94890009
:100270000E949A00812F8A95F1F780E00E94750014
:10028000803121F482E061E00E94F20080E00E946F
:100290007500803521F481E061E00E94F200219632
:1002A00088818823F9F6DF91CF911F9108950E94EC
:1002B0009A0080E060E50E9489000E949A0081E037
:1002C00060E40E9489000E949A0081E06AE40E9432
:1002D00089000E949A0081E060E40E9489000E94E7
:1002E0009A0081E064E40E9489000E949A0081E003
:1002F00061E50E9489000E949A0081E06EE40E94FC
:1003000089000E949A0081E060E40E9489000E94B6
:100310009A0081E060E40E9489000895DF93CF9302
:10032000CDB7DEB761970FB6F894DEBF0FBECDBF75
:1003300080E10CC000000000000000000000000090
:1003400029B320952F7051F48AB3880F8ABB8AB3E2
:10035000882381F788B318BA8FE735C03AB3832F63
:1003600090E036FF02C092E007C045E09695879581
:100370004A95E1F7982F917037FD93E020FD0CC06E
:1003800021FF02C021E009C022FF02C022E005C017
:1003900023FF02C023E001C020E0DE011196E0E669
:1003A000F0E081E101900D928150E1F7990F990FF2
:1003B000920FFE01E90FF11D81818A3211F4C19A79
:1003C00002C08332E1F361960FB6F894DEBF0FBE30
:1003D000CDBFCF91DF9108951F920F920FB60F926C
:1003E00011242F933F934F935F936F937F938F933A
:1003F0009F93AF93BF93EF93FF938091AF00909142
:10040000B00001969093B0008093AF008D379105B6
:1004100009F08DC01092B0001092AF008091A8003A
:100420009091A90001969093A9008093A800CC9781
:1004300068F01092A9001092A8008091A6009091F7
:10044000A70001969093A7008093A6008091A60034
:100450009091A700CC9768F01092A7001092A60088
:100460008091A4009091A50001969093A50080939F
:10047000A4008091A4009091A500489720F01092CC
:10048000A5001092A40082E061E00E94F200809139
:10049000A4009091A5008A30910538F06AE070E0E0
:1004A0000E946D04862F805D01C080E20E940B01D6
:1004B0008091A4009091A5006AE070E00E946D0414
:1004C000805D0E940B018AE30E940B018091A600CF
:1004D0009091A7006AE070E00E946D04862F805D15
:1004E0000E940B018091A6009091A7006AE070E045
:1004F0000E946D04805D0E940B018AE30E940B0143
:100500008091A8009091A9006AE070E00E946D04BB
:10051000862F805D0E940B018091A8009091A90018
:100520006AE070E00E946D04805D0E940B01FF9103
:10053000EF91BF91AF919F918F917F916F915F915B
:100540004F913F912F910F900FBE0F901F901895D4
:100550001F920F920FB60F9211240F931F932F9398
:100560003F934F935F936F937F938F939F93AF933B
:10057000BF93EF93FF93DF93CF9300D000D0CDB71D
:10058000DEB78091B1008430B1F41092B100809157
:10059000AC008093B2000E948E01982F8093AC0033
:1005A0008091B2008F3739F49F3729F081E0809332
:1005B000AE009093B7008091AE00882309F462C02A
:1005C0008091B700833429F08091B700843409F01A
:1005D00059C01092AE008091B700833491F480919D
:1005E000AA009091AB0005969093AB008093AA006F
:1005F0008536910534F084E690E09093AB008093CB
:10060000AA008091B700843479F48091AA00909177
:10061000AB0005979093AB008093AA0097FF04C0AE
:100620001092AB001092AA002091AA003091AB006A
:100630008FEF90E0AC01249FC001259F900D349F67
:10064000900D112464E670E00E9481046CBF82E08A
:100650006BE00E94F20081E790E00E942C01809103
:10066000AA009091AB008E010F5F1F4FB8014AE0C6
:1006700050E00E94B204C8010E942C0184E790E07F
:100680000E942C018091B1008F5F8093B1000F9088
:100690000F900F900F90CF91DF91FF91EF91BF914D
:1006A000AF919F918F917F916F915F914F913F910A
:1006B0002F911F910F910F900FBE0F901F901895C3
:1006C0002F923F924F925F926F927F928F929F9262
:1006D000AF92BF92CF92DF92EF92FF920F931F9350
:1006E000DF93CF93CDB7DEB761970FB6F894DEBF37
:1006F0000FBECDBFDE011596EBE9F0E089E0019079
:100700000D928150E1F70E94B9008CE683BF8EE024
:1007100085BD80E88CBF89EF83BDBB9A89B78160B6
:1007200089BF89B7806889BF8FB780688FBF91E024
:100730008091AE008823E1F38091B7008033C0F34D
:100740008091B7008A33A0F71092AE009230C9F0C2
:10075000933021F1913061F781E061E00E94F20075
:1007600088E790E00E942C0181E061E00E94F200A5
:100770008091B70089838091B7000E940B0192E0BD
:10078000D7CF8091B7008A8381E062E00E94F200B7
:100790008091B7000E940B0193E0CACF8091B7000F
:1007A0008B831C8281E063E00E94F2008091B7009D
:1007B0000E940B0181E068E00E94F2008E010B5F55
:1007C0001F4F08C00E940B0160E573EC80E090E0D1
:1007D0000E944900F80181918F01882399F7CE0189
:1007E00001960E9494043C01882477FC8094982C04
:1007F000C401B301A40193010E944E046E877F8758
:10080000888B998B91E0A92EB12CC12CD12C22C0C0
:10081000C801B701A80197010E944E04620D731D23
:10082000841D951D2E853F85488959896217730758
:100830008407950721F10894E11CF11C011D111D8D
:100840006E147F048006910618F70894A11CB11C51
:10085000C11CD11C6A147B048C049D0410F410E0AC
:100860000FC0C601B501A60195010E944E041B01EF
:100870002C0181E0E82EF12C012D112DE1CF11E0AA
:1008800081E068E00E94F200112319F089E890E00D
:1008900002C082E990E00E942C0149CF629FD00102
:1008A000739FF001829FE00DF11D649FE00DF11D2B
:1008B000929FF00D839FF00D749FF00D659FF00DDA
:1008C0009927729FB00DE11DF91F639FB00DE11DC7
:1008D000F91FBD01CF0111240895AA1BBB1B51E1D3
:1008E00007C0AA1FBB1FA617B70710F0A61BB70BA0
:1008F000881F991F5A95A9F780959095BC01CD0145
:10090000089597FB092E07260AD077FD04D0E5DF6E
:1009100006D000201AF4709561957F4F0895F6F780
:10092000909581959F4F0895FC0188279927E89419
:1009300021912032E9F3293010F02E30C8F32B3208
:1009400041F02D3239F4689404C00E94D304820F20
:10095000911D219120532A30C0F31EF4909581956A
:100960009F4F0895FB019F01E8944230C4F0453247
:10097000B4F44A3029F497FB1EF4909581959F4F6B
:10098000642F77270E946D04805D8A330CF0895DA7
:100990008193CB010097A1F716F45DE25193108289
:1009A000C9010C94DB047AE0979F902D879F802DDE
:1009B000910D11240895DC01FC01672F71917723BB
:1009C000E1F7329704C07C916D9370836291AE170A
:0A09D000BF07C8F30895F894FFCFA5
:1009DA003132334134353642373839432A302344A9
:1009EA00004C3D002520200020202020202020200F
:1009FA002020202020202020005059544820202048
:100A0A0020006E6F6E505954482000427573792E3B
:0E0A1A002E2E200017003B00320032007F001D
:00000001FF
