:100000000C942F000C9439000C9439000C94390096
:100010000C9439000C9439000C9439000C9439007C
:100020000C9439000C9439000C9439000C9439006C
:100030000C9439000C9439000C9439000C9439005C
:100040000C9439000C9439000C9439000C9439004C
:100050000C94390081CF9286CCA4A08F8084112487
:100060001FBECFE5D4E0DEBFCDBF0E943B000C94A5
:100070007D000C940000DF93CF9300D000D0CDB76B
:10008000DEB719821A821B821C828FEF8ABB17BAD5
:1000900020E03EEF86B38F71E82FF0E084FD0AC0C8
:1000A0008A3028F4EC5AFF4F84918BBB01C03BBBD4
:1000B00020E0F0CF89819A81AB81BC810196A11D9E
:1000C000B11D89839A83AB83BC8389819A81AB817B
:1000D000BC818854984EA140B040E1F6E22FF0E098
:1000E000EC5AFF4FE491EBBB2F5F2A3008F020E081
:0E00F00019821A821B821C82CDCFF894FFCF9A
:00000001FF
