:100000000C942A000C9447000C9447000C94470071
:100010000C9447000C9447000C9447000C94470044
:100020000C9447000C9447000C9447000C94470034
:100030000C9447000C9447000C9447000C94470024
:100040000C9447000C9447000C9447000C94470014
:100050000C94470011241FBECFE5D4E0DEBFCDBF16
:1000600010E0A0E6B0E0E6E4F8E002C005900D92F2
:10007000AE37B107D9F710E0AEE7B0E001C01D928E
:10008000A238B107E1F70E9449000C9421040C94B6
:1000900000002F923F924F925F926F927F928F92C9
:1000A0009F92AF92BF92CF92DF92EF92FF920F9307
:1000B0001F93DF93CF9300D000D00F92CDB7DEB760
:1000C0000E94A8028EE085BD89EF83BD6624772457
:1000D0001D821C82AA24BB244424552481E08A83E7
:1000E0001FE700E01B82222433248824992498E30C
:1000F000C92ED12C88E0E82EF12C09C092E063C112
:10010000E1E0EA8300E0FB81FF5FFB8319818B81E3
:10011000883C51F40E947D0389831F3719F48F377F
:1001200009F09CC119811B8219839A81933009F4CB
:1001300021C1943028F4913051F0923021F7A5C0BC
:10014000EA81E43009F4D3C0E530E9F63EC108B6EF
:1001500007FE97C088B7806888BF0894211C311CAF
:10016000FEE32F16310479F482E063E00E94E1029D
:1001700080E20E94FA0282E066E00E94E10280E2F0
:100180000E94FA027EC08DE72816310409F079C07A
:100190000894811C911C9CE38916910428F0089412
:1001A000C11CD11C88249924ECE3CE16D10428F07C
:1001B0000894E11CF11CCC24DD24F8E1EF16F104D5
:1001C00010F0EE24FF2482E061E00E94E102C7010A
:1001D0006AE070E00E940D047D836C8361157105F7
:1001E00021F48AE090E09D838C83C7016AE070E08F
:1001F0000E940D042C018C819D810E94DB030E94D2
:10020000FA02C2010E94DB030E94FA028AE30E9402
:10021000FA02C6016AE070E00E940D043B01C601CB
:100220006AE070E00E940D045C01C3010E94DB03E0
:100230000E94FA02C5010E94DB030E94FA028AE3CF
:100240000E94FA02C4016AE070E00E940D04CB0132
:100250000E94DB030E94FA02C4016AE070E00E947F
:100260000D040E94DB030E94FA0208B607FE07C0D5
:100270000E94DA0280E690E00E941B03FFCF222456
:100280003324013409F03FCF39CF82E061E00E948E
:10029000E1028C819D810E94DB030E94FA02C2016F
:1002A0000E94DB030E94FA028AE30E94FA02C30161
:1002B0000E94DB030E94FA02C5010E94DB030E9438
:1002C000FA028AE30E94FA0280E30E94FA0280E3C3
:1002D0000E94FA02023419F494E09A8304C00134B3
:1002E00019F4E3E0EA8300E0882499240CCF089411
:1002F000C11CD11CFCE3CF16D10410F0CC24DD24AA
:1003000082E061E00E94E1028C819D810E94DB031A
:100310000E94FA02C2010E94DB030E94FA028AE3F1
:100320000E94FA02C6016AE070E00E940D043B01DF
:10033000C6016AE070E00E940D045C01C3010E94E6
:10034000DB030E94FA02C5010E94DB030E94FA024D
:100350008AE30E94FA0280E30E94FA0280E30E948C
:10036000FA02023409F4CACE013409F0CCCE83E09B
:100370008A83C8CE82E061E00E94E1028C819D8187
:100380000E94DB030E94FA02C2010E94DB030E946A
:10039000FA028AE30E94FA02C3010E94DB030E9470
:1003A000FA02C5010E94DB030E94FA028AE30E945E
:1003B000FA0280E30E94FA0280E30E94FA02023409
:1003C00009F048C095E09A839DCE0894E11CF11C89
:1003D000E8E1EE16F10410F0EE24FF2482E061E083
:1003E0000E94E102C7016AE070E00E940D047D8373
:1003F0006C836115710521F48AE090E09D838C8304
:10040000C7016AE070E00E940D042C018C819D817F
:100410000E94DB030E94FA02C2010E94DB030E94D9
:10042000FA028AE30E94FA02C3010E94DB030E94DF
:10043000FA02C5010E94DB030E94FA028AE30E94CD
:10044000FA0280E30E94FA0280E30E94FA02023478
:1004500009F458CE013409F056CE52CE81E061E065
:100460000E94E10289810E94FA0209811B825DCE0D
:100470009B01AC0110927E0010927F0010928000D0
:100480001092810013C080917E0090917F00A09116
:100490008000B09181000196A11DB11D80937E0066
:1004A00090937F00A0938000B093810080917E00A4
:1004B00090917F00A0918000B091810082179307F6
:1004C000A407B50700F3089511BA882311F4C5985D
:1004D00001C0C59AC69A0000C79A0000000000003B
:1004E0000000000080B3C79800009FEF91BB089503
:1004F000882311F4C59801C0C59AC69862BB000054
:10050000C79A00000000000000000000C79800002B
:10051000089580E00E94640287FDFBCF08950E9449
:10052000890280E068E30E9478020E94890280E0EC
:1005300066E00E9478020E94890280E06CE00E94DE
:1005400078020E94890280E061E00E9478020895AA
:1005500018BA82EE87BB8FEF81BB1BBA10927E0068
:1005600010927F00109280001092810013C0809141
:100570007E0090917F00A0918000B0918100019653
:10058000A11DB11D80937E0090937F00A0938000F9
:10059000B093810080917E0090917F00A0918000B7
:1005A000B0918100805C944DA140B04000F30E9466
:1005B0008F0208950E94890280E061E00E94780223
:1005C00008951F93162F813039F4613188F40E9409
:1005D00089021150106808C0823051F4613140F432
:1005E0000E9489021150106C80E0612F0E947802F5
:1005F0001F9108951F93182F0E94890281E0612F97
:100600000E9478020E94890285E18A95F1F780E0D4
:100610000E946402803121F482E061E00E94E102E4
:1006200080E00E946402803521F481E061E00E9454
:10063000E1021F9108951F93CF93DF93EC0115E121
:100640001EC00E94890281E068810E9478020E9497
:100650008902812F8A95F1F780E00E94640280313F
:1006600021F482E061E00E94E10280E00E946402E5
:10067000803521F481E061E00E94E10221968881C9
:100680008823F9F6DF91CF911F9108950E94890286
:1006900080E060E50E9478020E94890281E060E4C7
:1006A0000E9478020E94890281E06AE40E94780236
:1006B0000E94890281E060E40E9478020E9489021F
:1006C00081E064E40E9478020E94890281E061E591
:1006D0000E9478020E94890281E06EE40E94780202
:1006E0000E94890281E060E40E9478020E948902EF
:1006F00081E060E40E9478020895DF93CF93CDB744
:10070000DEB761970FB6F894DEBF0FBECDBF80E1B4
:100710000CC000000000000000000000000029B331
:1007200020952F7051F48AB3880F8ABB8AB388232F
:1007300081F788B318BA8FE735C03AB3832F90E0BA
:1007400036FF02C092E007C045E0969587954A952E
:10075000E1F7982F917037FD93E020FD0CC021FF49
:1007600002C021E009C022FF02C022E005C023FF31
:1007700002C023E001C020E0DE011196EDE6F0E0CA
:1007800081E101900D928150E1F7990F990F920F3D
:10079000FE01E90FF11D81818A3211F4C19A02C074
:1007A0008332E1F361960FB6F894DEBF0FBECDBF82
:1007B000CF91DF910895009711F480E3089581307F
:1007C000910511F481E308958230910511F482E3DB
:1007D00008958330910511F483E3089584309105E1
:1007E00011F484E308958530910511F485E30895AB
:1007F0008630910511F486E308958730910511F450
:1008000087E308958830910511F488E308950997E6
:1008100011F080E2089589E30895AA1BBB1B51E102
:1008200007C0AA1FBB1FA617B70710F0A61BB70B60
:10083000881F991F5A95A9F780959095BC01CD0105
:060840000895F894FFCFBB
:1008460045726F61726520636561732100313233D1
:0E0856004134353642373839432A30234400C6
:00000001FF
