:100000000C942A000C9434000C9434000C943400AA
:100010000C9434000C9434000C9434000C94340090
:100020000C9434000C9434000C9434000C94340080
:100030000C9434000C9434000C9434000C94340070
:100040000C9434000C9434000C9434000C94340060
:100050000C94340011241FBECFE5D4E0DEBFCDBF29
:100060000E9436000C9462000C9400008FEF8ABB53
:1000700017BA96B3392F3F70832F8695232F269575
:100080002695282729272170832F86958695869582
:100090002827333008F42260832F8250823040F0CA
:1000A000353031F0373021F03B3011F03D3029F45C
:1000B0002460373021F03B3011F03D3008F02860EB
:0800C0002BBBD7CFF894FFCF52
:00000001FF
