:100000000C942A000C9447000C9447000C94470071
:100010000C9447000C9447000C9447000C94470044
:100020000C9447000C9447000C9447000C94470034
:100030000C9447000C9447000C9447000C94470024
:100040000C9447000C9447000C9447000C94470014
:100050000C94470011241FBECFE5D4E0DEBFCDBF16
:1000600010E0A0E6B0E0E6E7F7E002C005900D92F0
:10007000A63AB107D9F710E0A6EAB0E001C01D9298
:10008000AA3AB107E1F70E94EC010C94B9030C9471
:1000900000009B01AC011092A6001092A7001092E4
:1000A000A8001092A90013C08091A6009091A7000B
:1000B000A091A800B091A9000196A11DB11D809347
:1000C000A6009093A700A093A800B093A9008091E8
:1000D000A6009091A700A091A800B091A900821756
:1000E0009307A407B50700F3089511BA882311F404
:1000F000C59801C0C59AC69A0000C79A00000000C2
:1001000000000000000080B3C79800009FEF91BB83
:100110000895882311F4C59801C0C59AC69862BB9A
:100120000000C79A00000000000000000000C7980F
:100130000000089580E00E94750087FDFBCF0895C0
:100140000E949A0080E068E30E9489000E949A0061
:1001500080E066E00E9489000E949A0080E06FE0E3
:100160000E9489000E949A0080E061E00E9489005C
:10017000089518BA82EE87BB8FEF81BB1BBA10922D
:10018000A6001092A7001092A8001092A90013C018
:100190008091A6009091A700A091A800B091A9001D
:1001A0000196A11DB11D8093A6009093A700A09376
:1001B000A800B093A9008091A6009091A700A091FB
:1001C000A800B091A900805C944DA140B04000F31C
:1001D0000E94A00008950E949A0080E061E00E94C1
:1001E000890008951F93162F813039F4613188F406
:1001F0000E949A001150106808C0823051F4613199
:1002000040F40E949A001150106C80E0612F0E940F
:1002100089001F9108951F93182F0E949A0081E072
:10022000612F0E9489000E949A0085E18A95F1F76A
:1002300080E00E947500803121F482E061E00E943C
:10024000F20080E00E947500803521F481E061E0D9
:100250000E94F2001F9108951F93CF93DF93EC014A
:1002600015E11EC00E949A0081E068810E94890009
:100270000E949A00812F8A95F1F780E00E94750014
:10028000803121F482E061E00E94F20080E00E946F
:100290007500803521F481E061E00E94F200219632
:1002A00088818823F9F6DF91CF911F9108950E94EC
:1002B0009A0080E060E50E9489000E949A0081E037
:1002C00060E40E9489000E949A0081E06AE40E9432
:1002D00089000E949A0081E060E40E9489000E94E7
:1002E0009A0081E064E40E9489000E949A0081E003
:1002F00061E50E9489000E949A0081E06EE40E94FC
:1003000089000E949A0081E060E40E9489000E94B6
:100310009A0081E060E40E9489000895DF93CF9302
:10032000CDB7DEB761970FB6F894DEBF0FBECDBF75
:1003300080E10CC000000000000000000000000090
:1003400029B320952F7051F48AB3880F8ABB8AB3E2
:10035000882381F788B318BA8FE735C03AB3832F63
:1003600090E036FF02C092E007C045E09695879581
:100370004A95E1F7982F917037FD93E020FD0CC06E
:1003800021FF02C021E009C022FF02C022E005C017
:1003900023FF02C023E001C020E0DE011196E0E669
:1003A000F0E081E101900D928150E1F7990F990FF2
:1003B000920FFE01E90FF11D81818A3211F4C19A79
:1003C00002C08332E1F361960FB6F894DEBF0FBE30
:1003D000CDBFCF91DF9108952F923F924F925F92C0
:1003E0006F927F928F929F92AF92BF92CF92DF9245
:1003F000EF92FF920F931F93DF93CF93CDB7DEB7AA
:1004000061970FB6F894DEBF0FBECDBF0E94B90052
:100410008CE683BF80E88CBFBB9A1D861C8622E3D6
:1004200030E03B872A8701E01FE73C85383C51F4E8
:100430000E948E0189878F3719F01F3709F4F4C0A5
:1004400019851C86198720E03BC04985433471F427
:100450006A857B856B5F7F4F7B876A876536710511
:1004600094F084E690E09B878A870DC09985943448
:1004700051F42A853B85255030403B872A8737FF3A
:1004800002C01B861A8682E061E00E94F20081E7CA
:1004900090E00E942C018A859B85BE016F5F7F4F93
:1004A0004AE050E00E948003CE0101960E942C0198
:1004B00084E790E00E942C0139853D8721E01C866D
:1004C0004A855B856FEF70E0469FC001479F900DA6
:1004D000569F900D112464E670E00E943B036CBFB0
:1004E000222309F49CC07D85703308F498C07A33C8
:1004F00008F095C00230B9F0033001F1013009F085
:100500008EC081E061E00E94F20088E790E00E94E6
:100510002C0181E061E00E94F2008D858D830E94B4
:100520000B0102E07CC09D859E8381E062E00E9419
:10053000F2008D850E940B0103E071C02D852F8391
:10054000188681E063E00E94F2008D850E940B0115
:1005500081E068E00E94F20089E890E00E942C01AE
:10056000CE0105960E9462033C01882477FC8094AA
:10057000982CC401B301A40193010E941C036E874F
:100580007F87888B998B91E0A92EB12CC12CD12C1F
:1005900022C0C801B701A80197010E941C03620D87
:1005A000731D841D951D2E853F85488959896217C5
:1005B00073078407950721F10894E11CF11C011DC4
:1005C000111D6E147F048006910618F70894A11C73
:1005D000B11CC11CD11C6A147B048C049D0410F452
:1005E00010E00FC0C601B501A60195010E941C03D1
:1005F0001B012C0181E0E82EF12C012D112DE1CF02
:1006000011E081E068E00E94F200112319F083E913
:1006100090E002C08CE990E00E942C0101E03C8552
:100620003F5F3C87198501CF89858354823008F468
:100630000CCF49854D8742CF629FD001739FF00157
:10064000829FE00DF11D649FE00DF11D929FF00D62
:10065000839FF00D749FF00D659FF00D9927729F99
:10066000B00DE11DF91F639FB00DE11DF91FBD0124
:10067000CF011124089597FB092E07260AD077FD94
:1006800004D00CD006D000201AF4709561957F4FED
:100690000895F6F7909581959F4F0895AA1BBB1B6F
:1006A00051E107C0AA1FBB1FA617B70710F0A61B72
:1006B000B70B881F991F5A95A9F780959095BC0193
:1006C000CD010895FC0188279927E89421912032D3
:1006D000E9F3293010F02E30C8F32B3241F02D32DF
:1006E00039F4689404C00E94A103820F911D2191E6
:1006F00020532A30C0F31EF4909581959F4F0895A2
:10070000FB019F01E8944230C4F04532B4F44A3012
:1007100029F497FB1EF4909581959F4F642F7727BE
:100720000E944E03805D8A330CF0895D8193CB017A
:100730000097A1F716F45DE251931082C9010C9461
:10074000A9037AE0979F902D879F802D910D11240A
:100750000895DC01FC01672F71917723E1F732974F
:1007600004C07C916D9370836291AE17BF07C8F38C
:060770000895F894FFCF8C
:100776003132334134353642373839432A3023440F
:10078600004C3D0025202000202020202020202075
:10079600202020202020202000427573792E2E2E26
:1007A600202C005059544820202020006E6F6E5097
:0607B60059544820000028
:00000001FF
