:100000000C942A000C9447000C9447000C94470071
:100010000C9447000C9447000C9447000C94470044
:100020000C9447000C9447000C9447000C94470034
:100030000C9447000C9447000C9447000C94470024
:100040000C9447000C9447000C9447000C94470014
:100050000C94470011241FBECFE5D4E0DEBFCDBF16
:1000600010E0A0E6B0E0EEE0F4E002C005900D92F2
:10007000A237B107D9F710E0A2E7B0E001C01D92A6
:10008000A637B107E1F70E9449000C9405020C94D1
:1000900000000F931F930E94D2000FE780E0883C7E
:1000A00049F40E94A701182F0F3711F48F3731F44C
:1000B000012F80E0102F8F5F012FF1CF0E942401CC
:1000C00080E0F9CF9B01AC01109272001092730096
:1000D000109274001092750013C08091720090917C
:1000E0007300A0917400B09175000196A11DB11D1F
:1000F0008093720090937300A0937400B093750086
:100100008091720090917300A0917400B09175007D
:1001100082179307A407B50700F3089511BA88233F
:1001200011F4C59801C0C59AC69A0000C79A00008C
:10013000000000000000000080B3C79800009FEF9F
:1001400091BB0895882311F4C59801C0C59AC6983B
:1001500062BB0000C79A0000000000000000000021
:10016000C7980000089580E00E948E0087FDFBCFB5
:1001700008950E94B30080E068E30E94A2000E94FC
:10018000B30080E066E00E94A2000E94B30080E01D
:100190006FE00E94A2000E94B30080E061E00E9434
:1001A000A200089518BA82EE87BB8FEF81BB1BBAFD
:1001B00010927200109273001092740010927500E9
:1001C00013C08091720090917300A0917400B0915F
:1001D00075000196A11DB11D80937200909373006C
:1001E000A0937400B0937500809172009091730099
:1001F000A0917400B0917500805C944DA140B04016
:1002000000F30E94B90008950E94B30080E061E00D
:100210000E94A20008951F93162F813039F4613196
:1002200088F40E94B3001150106808C0823051F465
:10023000613140F40E94B3001150106C80E0612FD6
:100240000E94A2001F9108951F93182F0E94B300CF
:1002500081E0612F0E94A2000E94B30085E18A958F
:10026000F1F780E00E948E00803121F482E061E0AD
:100270000E940B0180E00E948E00803521F481E015
:1002800061E00E940B011F9108951F93CF93DF93AC
:10029000EC0115E11EC00E94B30081E068810E945C
:1002A000A2000E94B300812F8A95F1F780E00E949E
:1002B0008E00803121F482E061E00E940B0180E039
:1002C0000E948E00803521F481E061E00E940B01E4
:1002D000219688818823F9F6DF91CF911F910895A7
:1002E0000E94B30080E060E50E94A2000E94B3007B
:1002F00081E060E40E94A2000E94B30081E06AE411
:100300000E94A2000E94B30081E060E40E94A2006B
:100310000E94B30081E064E40E94A2000E94B30046
:1003200081E061E50E94A2000E94B30081E06EE4DA
:100330000E94A2000E94B30081E060E40E94A2003B
:100340000E94B30081E060E40E94A2000895DF9360
:10035000CF93CDB7DEB761970FB6F894DEBF0FBE6F
:10036000CDBF80E10CC000000000000000000000D4
:10037000000029B320952F7051F48AB3880F8ABBEF
:100380008AB3882381F788B318BA8FE735C03AB3A8
:10039000832F90E036FF02C092E007C045E09695BB
:1003A00087954A95E1F7982F917037FD93E020FDEE
:1003B0000CC021FF02C021E009C022FF02C022E0E0
:1003C00005C023FF02C023E001C020E0DE0111963A
:1003D000E0E6F0E081E101900D928150E1F7990FA4
:1003E000990F920FFE01E90FF11D81818A3211F4FC
:1003F000C19A02C08332E1F361960FB6F894DEBF72
:0E0400000FBECDBFCF91DF910895F894FFCFCE
:10040E003132334134353642373839432A3023447A
:02041E000000DC
:00000001FF
