:100000000C942A000C943C000C943C000C943C0092
:100010000C943C000C943C000C943C000C943C0070
:100020000C943C000C943C000C943C000C943C0060
:100030000C943C000C943C000C943C000C943C0050
:100040000C943C000C943C000C943C000C943C0040
:100050000C943C0011241FBECFE5D4E0DEBFCDBF21
:1000600010E0A0E6B0E001C01D92A436B107E1F7B0
:100070000E94DF000C94E2000C9400009B01AC0194
:100080001092600010926100109262001092630062
:1000900013C08091600090916100A0916200B091C6
:1000A00063000196A11DB11D8093600090936100D3
:1000B000A0936200B0936300809160009091610012
:1000C000A0916200B091630082179307A407B5075F
:1000D00000F3089511BA882311F4C59801C0C59A98
:1000E000C69A0000C79A000000000000000000004F
:1000F00080B3C79800009FEF91BB0895882311F447
:10010000C59801C0C59AC69862BB0000C79A000096
:100110000000000000000000C7980000089580E083
:100120000E946A0087FDFBCF08950E948F0080E047
:1001300068E30E947E000E948F0080E066E00E94DB
:100140007E000E948F0080E06FE00E947E000E948F
:100150008F0080E061E00E947E00089518BA80EE72
:1001600087BB8FEF81BB10926000109261001092EC
:1001700062001092630013C0809160009091610052
:10018000A0916200B09163000196A11DB11D809302
:10019000600090936100A0936200B093630080912F
:1001A000600090916100A0916200B0916300805C5A
:1001B000944DA140B04000F30E94950008950E9424
:0801C000AE00FFCFF894FFCF61
:00000001FF
