:100000000C942F000C9439000C9439000C94390096
:100010000C9439000C9439000C9439000C9439007C
:100020000C9439000C9439000C9439000C9439006C
:100030000C9439000C9439000C9439000C9439005C
:100040000C9439000C9439000C9439000C9439004C
:100050000C94390081CF9286CCA4A08F8084112487
:100060001FBECFE5D4E0DEBFCDBF0E943B000C94A5
:100070004B000C9400008FEF8ABB17BA8EEFE6B3EB
:10008000EF70EA3030F4F0E0EC5AFF4FE491EBBB54
:0A009000F6CF8BBBF4CFF894FFCF3E
:00000001FF
