:100000000C942A000C9447000C9447000C94470071
:100010000C9447000C9447000C9447000C94470044
:100020000C9447000C9447000C9447000C94470034
:100030000C9447000C9447000C9447000C94470024
:100040000C9447000C9447000C9447000C94470014
:100050000C94470011241FBECFE5D4E0DEBFCDBF16
:1000600010E0A0E6B0E0E4EBF6E002C005900D92EF
:10007000A83BB107D9F710E0A8EBB0E001C01D9292
:10008000AC3BB107E1F70E9449000C9458030C9473
:1000900000002F923F924F925F926F927F928F92C9
:1000A0009F92AF92BF92CF92DF92EF92FF920F9307
:1000B0001F93DF93CF9300D000D0CDB7DEB7198266
:1000C0001A821B821C8269E3A62E59E3B52E0E9478
:1000D00025024FE7C42E00E0FF24DD2410E0EE24CB
:1000E00031E0232E312C412C512C23E0622E712C37
:1000F000812C912C10C084E6D81669F40E94FA0273
:100100008F3739F09FE7C91621F4C82EF82E01E089
:1001100001C0C82EDD24133009F40AC1143028F4BC
:10012000113001F11230E8F50DC0153009F4CDC0E1
:10013000153008F4BBC0163009F4D4C0173009F0EC
:1001400000C1F6C00E94570280E690E00E9498022B
:1001500082E061E00E945E028EE690E00E949802DA
:1001600011E0EFC0002309F4ECC0A3E4FA1639F45F
:100170000E9457028CE790E00E94980214E08F2DB5
:100180008153883010F000E0DCC00E94570281E803
:1001900090E00E9498028F2D0E94770200E012E00A
:1001A000D0C0B099D5C089819A81AB81BC818130A2
:1001B0009105A105B10521F181309105A105B10598
:1001C00058F082309105A105B105B1F10397A10561
:1001D000B10509F061C048C00E94570281E890E073
:1001E0000E9498028F2D0E94770260E970ED83E0F3
:1001F00090E00E94B50129823A824B825C824BC01A
:100200000E94570281E890E00E9498028F2D0E9480
:10021000770289E890E00E94980260E970ED83E03F
:1002200090E00E94B50182E090E0A0E0B0E0898318
:100230009A83AB83BC832FC00E94570281E890E071
:100240000E9498028F2D0E9477028BE890E00E9416
:10025000980260E970ED83E090E00E94B501698248
:100260007A828B829C8217C00E94570281E890E0BC
:100270000E9498028F2D0E9477028EE890E00E94E3
:10028000980260E970ED83E090E00E94B501198268
:100290001A821B821C82E3949FE0E91609F051C088
:1002A00019821A821B821C8210E05DC0002309F4AF
:1002B00048C08F2D80538A3008F041C08AE20E94E6
:1002C0007702BF2C00E015E03CC00023D1F18F2D58
:1002D00080538A30A0F58AE20E947702AF2C00E0BA
:1002E00016E02FC0002369F18F2D80538A3038F536
:1002F0008AE20E9477020E945702A1E3AB1589F4BB
:10030000B2E3BA1571F483E38F1559F482E990E0F2
:100310000E94980292E3A92E81E3B82E00E013E038
:1003200010C08BE990E00E94980200E017E009C03D
:1003300060ED72E183E190E00E94B50101C000E050
:1003400010E0D394133011F4C19AD5CEC198D3CE16
:1003500019821A821B821C820E94570282E990E055
:100360000E94980213E0EE24ECCF9B01AC011092A6
:10037000B8001092B9001092BA001092BB0013C0DE
:100380008091B8009091B900A091BA00B091BB00E3
:100390000196A11DB11D8093B8009093B900A09360
:1003A000BA00B093BB008091B8009091B900A091C1
:1003B000BA00B091BB0082179307A407B50700F3FA
:1003C000089511BA882311F4C59801C0C59AC69A38
:1003D0000000C79A0000000000000000000080B389
:1003E000C79800009FEF91BB0895882311F4C5982A
:1003F00001C0C59AC69862BB0000C79A0000000001
:10040000000000000000C7980000089580E00E94EE
:10041000E10187FDFBCF08950E94060280E068E3BA
:100420000E94F5010E94060280E066E00E94F5014C
:100430000E94060280E06FE00E94F5010E94060221
:1004400080E061E00E94F501089518BA82EE87BB52
:100450008FEF81BB1BBA1092B8001092B9001092B6
:10046000BA001092BB0013C08091B8009091B900FF
:10047000A091BA00B091BB000196A11DB11D80935F
:10048000B8009093B900A093BA00B093BB008091DC
:10049000B8009091B900A091BA00B091BB00805C07
:1004A000944DA140B04000F30E940C0208950E94B8
:1004B000060280E061E00E94F50108951F93162F67
:1004C000813039F4613188F40E94060211501068BD
:1004D00008C0823051F4613140F40E94060211508C
:1004E000106C80E0612F0E94F5011F9108951F9309
:1004F000182F0E94060281E0612F0E94F5010E94E0
:10050000060285E18A95F1F780E00E94E1018031E1
:1005100021F482E061E00E945E0280E00E94E1013D
:10052000803521F481E061E00E945E021F91089510
:100530001F93CF93DF93EC0115E11EC00E940602CA
:1005400081E068810E94F5010E940602812F8A9550
:10055000F1F780E00E94E101803121F482E061E066
:100560000E945E0280E00E94E101803521F481E07A
:1005700061E00E945E02219688818823F9F6DF916E
:10058000CF911F9108950E94060280E060E50E94CD
:10059000F5010E94060281E060E40E94F5010E94DC
:1005A000060281E06AE40E94F5010E94060281E0F1
:1005B00060E40E94F5010E94060281E064E40E946A
:1005C000F5010E94060281E061E50E94F5010E94AA
:1005D000060281E06EE40E94F5010E94060281E0BD
:1005E00060E40E94F5010E94060281E060E40E943E
:1005F000F5010895DF93CF93CDB7DEB761970FB6BE
:10060000F894DEBF0FBECDBF80E10CC0000000003B
:10061000000000000000000029B320952F7051F465
:100620008AB3880F8ABB8AB3882381F788B318BA44
:100630008FE735C03AB3832F90E036FF02C092E0D7
:1006400007C045E0969587954A95E1F7982F9170F8
:1006500037FD93E020FD0CC021FF02C021E009C05E
:1006600022FF02C022E005C023FF02C023E001C038
:1006700020E0DE011196E7EAF0E081E101900D92C1
:100680008150E1F7990F990F920FFE01E90FF11DCB
:1006900081818A3211F4C19A02C08332E1F36196FA
:1006A0000FB6F894DEBF0FBECDBFCF91DF91089596
:0406B000F894FFCFEC
:1006B40053756E61206C6120312E2E382C0043203E
:1006C40070656E74727520636F643A00436F643DA5
:1006D4000053756E206C6120002E002E2E002E2EED
:1006E4002E00446573636869732100436F64206955
:1006F4006E76616C69640031323341343536423789
:080704003839432A3023440078
:00000001FF
