:100000000C942A000C9447000C9447000C94470071
:100010000C9447000C9447000C9447000C94470044
:100020000C9447000C9447000C9447000C94470034
:100030000C9447000C9447000C9447000C94470024
:100040000C9447000C9447000C9447000C94470014
:100050000C94470011241FBECFE5D4E0DEBFCDBF16
:1000600010E0A0E6B0E0ECE1F3E002C005900D92F4
:10007000AC36B107D9F710E0ACE6B0E001C01D9294
:10008000A037B107E1F70E9472010C948C010C9427
:1000900000009B01AC0110926C0010926D00109258
:1000A0006E0010926F0013C080916C0090916D00F3
:1000B000A0916E00B0916F000196A11DB11D8093BB
:1000C0006C0090936D00A0936E00B0936F008091D0
:1000D0006C0090916D00A0916E00B0916F0082173E
:1000E0009307A407B50700F3089511BA882311F404
:1000F000C59801C0C59AC69A0000C79A00000000C2
:1001000000000000000080B3C79800009FEF91BB83
:100110000895882311F4C59801C0C59AC69862BB9A
:100120000000C79A00000000000000000000C7980F
:100130000000089580E00E94750087FDFBCF0895C0
:100140000E949A0080E068E30E9489000E949A0061
:1001500080E066E00E9489000E949A0080E06FE0E3
:100160000E9489000E949A0080E061E00E9489005C
:10017000089518BA80EE87BB8FEF81BB10926C0098
:1001800010926D0010926E0010926F0013C080915B
:100190006C0090916D00A0916E00B0916F0001967F
:1001A000A11DB11D80936C0090936D00A0936E0013
:1001B000B0936F0080916C0090916D00A0916E00E3
:1001C000B0916F00805C944DA140B04000F30E945C
:1001D000A00008951F93182F0E949A0081E0612FBC
:1001E0000E9489001F9108950E949A0080E061E0BA
:1001F0000E94890008951F93162F813029F40E94D0
:100200009A001150106806C0823041F40E949A0092
:100210001150106C80E0612F0E9489001F91089599
:100220001F93CF93DF93EC0115E11EC00E949A004B
:1002300081E068810E9489000E949A00812F8A953E
:10024000F1F780E00E947500803121F482E061E0E6
:100250000E94FB0080E00E947500803521F481E05F
:1002600061E00E94FB00219688818823F9F6DF91E6
:10027000CF911F9108950E949A0080E060E50E944E
:1002800089000E949A0081E060E40E9489000E9437
:100290009A0081E06AE40E9489000E949A0081E04D
:1002A00060E40E9489000E949A0081E064E40E9458
:1002B00089000E949A0081E061E50E9489000E9405
:1002C0009A0081E06EE40E9489000E949A0081E019
:1002D00060E40E9489000E949A0081E060E40E942C
:1002E000890008950E94B9000E943B010E94F40019
:1002F00060E970ED83E090E00E94490082E00E9496
:10030000EA0080E690E00E94100160E970ED83E071
:0C03100090E00E944900EACFF894FFCF73
:0C031C0020697320536D696C6579210025
:00000001FF
