:100000000C942A000C9434000C9434000C943400AA
:100010000C9434000C9434000C9434000C94340090
:100020000C9434000C9434000C9434000C94340080
:100030000C9434000C9434000C9434000C94340070
:100040000C9434000C9434000C9434000C94340060
:100050000C94340011241FBECFE5D4E0DEBFCDBF29
:100060000E9436000C9465000C9400008FEF8ABB50
:1000700017BAE4EA7CEC60EA5FE84FEC32E921E889
:1000800096E886B387708330B1F0843028F48130ED
:1000900071F0823070F409C0853089F0853068F0E5
:1000A000863079F0873069F70EC02BBBEACF4BBBA7
:1000B000E8CF3BBBE6CF9BBBE4CF7BBBE2CFEBBB48
:0E00C000E0CF6BBBDECF5BBBDCCFF894FFCF95
:00000001FF
